:020000040000FA
:020000000528D1
:040002000034003492
:080008005A2883168B01183001
:100010008500F33086007930870088010730890039
:1000200080309200831295019B010C3097009D0057
:100030000230920091011215103090008F018E0154
:1000400085018601870188019C2283120313F40134
:1000500083120313F301AE2283120313F30AAE22B9
:1000600083120313F30AAE2283120313F30AAE22A0
:1000700083120313F30AAE2283120313F30AAE2290
:1000800083120313F30AAE22B72152220030D600A6
:10009000D500D120861C4A28060E0F3970228618FA
:1000A0004F28702222215528542865206A2080205C
:1000B0006F205528C000030EC1000B108B10410E9D
:1000C0008300C00E400E9B280900950F6528950BF4
:1000D000672808009B0F6A289B0B6C2808000730D4
:1000E000D1003F220510511805148510D118851430
:1000F000051151190515D10B712808007E2808003B
:100100008615FF30BD00BD0B83288611FF30BD0072
:10011000BD0B88280800061E8B281014061A8E288E
:1001200010100F08C6000E08C5003C301F224308FF
:10013000D300080008003D21861C9B28060E0F39BD
:100140007022A2280B213F223F223F223F223F2242
:100150003F223F2270225730840053308222503099
:1001600082224F308222543082223A308222203042
:100170008222633082226D3082223F223F223F2240
:100180003F223F223F223F223F223F227022840A09
:10019000D50BAD28453082224E3082224430822257
:1001A000512A483082224930822254308222203023
:1001B00082222A30822220308222543082224F3002
:1001C00082222030822253308222543082224130D7
:1001D0008222523082225430822208004830822209
:1001E0004930822254308222203082222A308222D8
:1001F00020308222463082224F30822252308222A8
:1002000020308222443082224130822254308222A5
:100210004130822208004E308222553082224D30F9
:1002200082222030822253308222503082224F306C
:10023000822254308222533082223A30822220306D
:1002400082220800013083120313F300E922831293
:100250000313750838237708CA007808C9000030EE
:1002600083120313F300E922831203137508382362
:100270007708CC007808CB00080001308312031304
:10028000F300E92283120313750838237708CE00A0
:100290007808CD00003083120313F300E9228312A3
:1002A0000313750838237708D0007808CF000800BA
:1002B00001307322323082223030822206308312A3
:1002C0000313F300E9228312031375083823770818
:1002D0008222780882222F30822205308312031373
:1002E000F300E9228312031375083823770882226A
:1002F000780882222F308222043083120313F30005
:10030000E9228312031375083823770882227808BC
:100310008222C0307322023083120313F300E922D9
:100320008312031375083823770882227808822203
:100330003A308222013083120313F300E922831240
:1003400003137508382377088222780882223A300E
:100350008222003083120313F300E9228312031375
:1003600075083823770882227808822208008312D1
:100370000313F40183120313F301AE228312031358
:10038000F30AAE2283120313F30AAE22831203137D
:10039000F30AAE2283120313F30AAE22831203136D
:1003A000F30AAE2283120313F30AAE22831203135D
:1003B0000030F300831203138030F400AE22831266
:1003C00003130630F300831203131630F400AE2239
:1003D000831203130530F300831203130430F40077
:1003E000AE22831203130430F3008312031306308A
:1003F000F400AE22831203130330F30083120313BD
:100400000230F400AE22831203130230F300831291
:1004100003130030F400AE22831203130130F30003
:10042000831203130030F400AE2283120313003052
:10043000F300831203130030F400AE220800C8005A
:10044000C7010310C80DC80D1130C200C301C4019B
:10045000470845024808031C013E4602031C372A90
:100460004708C502031CC6034808C6020314C30D8F
:10047000C40D0310C80CC70CC20B282A0800FF309B
:10048000BF00FF30BD00BD0B432ABF0B412A08004F
:100490001430BE00FF30BD00BD0B4C2ABE0B4A2AF3
:0404A0000800512AD5
:0C04A40083128815932293229322333098
:1004B0007322932293223230732293229322283084
:1004C0007322932293220C307322932293220630BC
:1004D00073229322932201307322932293220800E5
:1004E0000130732208000811F300F03988008815E4
:1004F00093228811730EF039880088159322881191
:10050000932208000815F4007408F039043E8800AE
:10051000881593228811740EF039043E88008815DE
:100520009322881108001430F200FF30F100F10B23
:10053000972AF20B952A08008316031394011830AA
:100540008316031393000830831203139400941648
:100550008316031311151119AB2A08008316031310
:1005600011141118B12AD03083120313930083168B
:1005700003131419B92A8316031383160313111BCB
:10058000E22A831203137308831203139300831662
:1005900003131419C92A8316031383160313111B9B
:1005A000E22A831203137408831203139300831641
:1005B00003131419D92A8316031383160313111B6B
:1005C000E22AE32A00008316031311151119E62A03
:1005D00008008316031311141118EC2AD03083126B
:1005E00003139300831603131419F42A83160313B9
:1005F00083160313111B312B831203137308831209
:1006000003139300831603131419042B8316031387
:1006100083160313111B312B8316031391149118A6
:100620000F2BD13083120313930083160313141975
:10063000172B8316031383160313111B312B8316F9
:10064000031391159119222B83120313130883129C
:100650000313F5008316031391161116111A2E2B8E
:10066000322B00008316031311151119352B0800C6
:1006700083120313F600760E0F39303EF700831213
:10068000031376080F39303EF80008008316031371
:1006900011141118492B1030831203139300831681
:1006A00003131419512B8316031383160313111B01
:1006B0006A2B8312031370088312031393008316AB
:1006C00003131419612B8316031383160313111BD1
:1006D0006A2B6A2B83160313111511196D2B080051
:1006E0008316031311141118732B11308312031383
:1006F00093008316031314197B2B8316031383169D
:100700000313111B942B8316031391159119862B38
:1007100083120313130883120313F00083160313C9
:1007200091161116111A922B831603131115111914
:04073000972B0800FB
:02400E00723FFF
:00000001FF
