:020000040000FA
:020000000528D1
:040002000034003492
:08000800462883168B01063027
:100010009F0018308500F330860079308700880112
:100020000730890041309200831295019B019C307A
:1000300097009D000530920091011215103090003C
:100040008F018E01850186018701880152220030CF
:10005000D900D800D100EC20861C2C28060E0F39C0
:1000600070228618312870228720881708173828B0
:10007000522057208A205308053C031D38288B1531
:100080000B168B174328522057204328C000030E1D
:10009000C1000B108B108420410E8300C00E400E57
:1000A000B5280900950F5228950B542808009B0F7E
:1000B00057289B0B592808000030D200091052180D
:1000C00009140510D218051485105219851405114C
:1000D000D2190515472247224722472247224722A5
:1000E0004722472247224722472247224722071C0E
:1000F0007B2885165408B307D90AD20A52088512FC
:10010000103C031D5E2808001330D4070800872820
:100110000330080086154C228611061E8D28101407
:10012000061A902810100F08C2000E08C3008F0195
:100130008E013A30C4003A224508D50008008715E0
:100140004C228711071EA2281014071AA528101088
:100150000F08C2000E08C3008F018E013A30C400A0
:100160003A224508D6000800080058210921861CBB
:10017000B528060E0F397022BD28262147224722B6
:100180004722472247224722472270225A308400C2
:1001900053308222503082224F30822254308222C9
:1001A0003A30822220308222633082226D308222D5
:1001B00047224722472247224722472247224722F7
:1001C00047227022840AD80BC828453082224E303C
:1001D000822244308222512A4830822249308222AF
:1001E00054308222203082222A3082222030822201
:1001F000543082224F308222203082225330822299
:100200005430822241308222523082225430822263
:100210000800483082224930822254308222203025
:1002200082222A30822220308222463082224F309F
:100230008222523082222030822244308222413077
:100240008222543082224130822208004E308222A3
:10025000553082224D308222203082225330822239
:10026000503082224F3082225430822253308222F8
:100270003A30822220308222080001308312031398
:10028000F300E92283120313750838237708CA00A4
:100290007808C900003083120313F300E9228312A7
:1002A0000313750838237708CC007808CB000800C2
:1002B000013083120313F300E9228312031375083C
:1002C00038237708CE007808CD000030831203135E
:1002D000F300E92283120313750838237708D0004E
:1002E0007808CF000800013073223230822230308B
:1002F0008222063083120313F300E92283120313D0
:100300007508382377088222780882222F308222CB
:10031000053083120313F300E922831203137508D7
:10032000382377088222780882222F3082220430F4
:1003300083120313F300E922831203137508382391
:100340007708822278088222C0307322023083121A
:100350000313F300E9228312031375083823770887
:100360008222780882223A308222013083120313DB
:10037000F300E922831203137508382377088222D9
:10038000780882223A308222003083120313F3006D
:10039000E92283120313750838237708822278082C
:1003A0008222080083120313F40183120313F30162
:1003B000AE2283120313F30AAE2283120313F30A4D
:1003C000AE2283120313F30AAE2283120313F30A3D
:1003D000AE2283120313F30AAE2283120313F30A2D
:1003E000AE22831203130030F30083120313803014
:1003F000F400AE22831203130630F30083120313BA
:100400001630F400AE22831203130530F30083127A
:1004100003130430F400AE22831203130430F300FC
:10042000831203130630F400AE2283120313033049
:10043000F300831203130230F400AE22831203137D
:100440000230F300831203130030F400AE22831253
:1004500003130130F300831203130030F400AE22C3
:10046000831203130030F300831203130030F400EF
:10047000AE220800C5014408C302031C402A442AD6
:100480000130C202031C462AC50A3B2A0800FF307D
:10049000BF00BF0B492A08002130C600C60B4E2AF8
:0404A0000800512AD5
:0C04A40083128815932293229322333098
:1004B0007322932293223230732293229322283084
:1004C0007322932293220C307322932293220630BC
:1004D00073229322932201307322932293220800E5
:1004E0000130732208000811F300F03988008815E4
:1004F00093228811730EF039880088159322881191
:10050000932208000815F4007408F039043E8800AE
:10051000881593228811740EF039043E88008815DE
:100520009322881108001430F200FF30F100F10B23
:10053000972AF20B952A08008316031394011830AA
:100540008316031393000830831203139400941648
:100550008316031311151119AB2A08008316031310
:1005600011141118B12AD03083120313930083168B
:1005700003131419B92A8316031383160313111BCB
:10058000E22A831203137308831203139300831662
:1005900003131419C92A8316031383160313111B9B
:1005A000E22A831203137408831203139300831641
:1005B00003131419D92A8316031383160313111B6B
:1005C000E22AE32A00008316031311151119E62A03
:1005D00008008316031311141118EC2AD03083126B
:1005E00003139300831603131419F42A83160313B9
:1005F00083160313111B312B831203137308831209
:1006000003139300831603131419042B8316031387
:1006100083160313111B312B8316031391149118A6
:100620000F2BD13083120313930083160313141975
:10063000172B8316031383160313111B312B8316F9
:10064000031391159119222B83120313130883129C
:100650000313F5008316031391161116111A2E2B8E
:10066000322B00008316031311151119352B0800C6
:1006700083120313F600760E0F39303EF700831213
:10068000031376080F39303EF80008008316031371
:1006900011141118492B1030831203139300831681
:1006A00003131419512B8316031383160313111B01
:1006B0006A2B8312031370088312031393008316AB
:1006C00003131419612B8316031383160313111BD1
:1006D0006A2B6A2B83160313111511196D2B080051
:1006E0008316031311141118732B11308312031383
:1006F00093008316031314197B2B8316031383169D
:100700000313111B942B8316031391159119862B38
:1007100083120313130883120313F00083160313C9
:1007200091161116111A922B831603131115111914
:04073000972B0800FB
:02400E00723FFF
:00000001FF
