:020000040000FA
:020000000528D1
:040002000034003492
:080008005B2883168B01183000
:100010008500F33086007930870088010730890039
:1000200080309200831295019B010C3097009D0057
:100030000230920091011215103090008F018E0154
:100040008501860187018801932283120313F4013D
:1000500083120313F301A52283120313F30AA522CB
:1000600083120313F30AA52283120313F30AA522B2
:1000700083120313F30AA52283120313F30AA522A2
:1000800083120313F30AA522C12149220030D300B1
:10009000D200DB20861C4A28060E0F3967228618FC
:1000A0004F2867222C215528542866206B20812058
:1000B0008C2070205528C000030EC1000B108B103F
:1000C000410E8300C00E400EA5280900950F66283A
:1000D000950B682808009B0F6B289B0B6D28080068
:1000E0000730CE00362205104E1805148510CE18A4
:1000F000851405114E190515CE0B722808007F28AE
:1001000008008615FF30BD00BD0B84288611FF3026
:10011000BD00BD0B89280800061E8C281014061A85
:100120008F2810100F08C2000E08C3008F018E0127
:100130003A30C40029224508D0002F2367227708CF
:10014000792278087922080008004721861CA52812
:10015000060E0F396722AC281521362236223622A8
:10016000362236223622362267225430840053301B
:100170007922503079224F307922543079223A3026
:10018000792220307922633079226D30792236222B
:10019000362236223622362236223622362236229F
:1001A0006722840AD20BB728453079224E30792253
:1001B00044307922482A4830792249307922543013
:1001C0007922203079222A30792220307922543045
:1001D00079224F30792220307922533079225430DD
:1001E0007922413079225230792254307922080024
:1001F00048307922493079225430792220307922CE
:100200002A30792220307922463079224F307922E3
:1002100052307922203079224430792241307922BB
:10022000543079224130792208004E3079225530FD
:1002300079224D3079222030792253307922503082
:1002400079224F30792254307922533079223A3052
:100250007922203079220800013083120313F30041
:10026000E0228312031375082F237708C70078084C
:10027000C600003083120313F300E022831203133D
:1002800075082F237708C9007808C80008000130D6
:1002900083120313F300E0228312031375082F2344
:1002A0007708CB007808CA00003083120313F300EC
:1002B000E0228312031375082F237708CD007808F6
:1002C000CC00080001306A223230792230307922A5
:1002D000063083120313F300E02283120313750820
:1002E0002F2377087922780879222F307922053058
:1002F00083120313F300E0228312031375082F23E4
:1003000077087922780879222F30792204308312F5
:100310000313F300E0228312031375082F237708D9
:10032000792278087922C0306A22023083120313BE
:10033000F300E0228312031375082F237708792234
:10034000780879223A307922013083120313F300BE
:10035000E0228312031375082F2377087922780887
:1003600079223A307922003083120313F300E0221D
:100370008312031375082F237708792278087922CE
:10038000080083120313F40183120313F301A5225F
:1003900083120313F30AA52283120313F30AA5227F
:1003A00083120313F30AA52283120313F30AA5226F
:1003B00083120313F30AA52283120313F30AA5225F
:1003C000831203130030F300831203138030F40010
:1003D000A522831203130630F30083120313163091
:1003E000F400A522831203130530F30083120313D4
:1003F0000430F400A522831203130430F3008312A7
:1004000003130630F400A522831203130330F30014
:10041000831203130230F400A52283120313023067
:10042000F300831203130030F400A5228312031398
:100430000130F300831203130030F400A52283126D
:1004400003130030F300831203130030F400A522DD
:100450000800C5014408C302031C2F2A332A0130B7
:10046000C202031C352AC50A2A2A0800FF30BF0031
:10047000FF30BD00BD0B3A2ABF0B382A08001430EC
:10048000BE00FF30BD00BD0B432ABE0B412A080051
:02049000482AF8
:0E049200831288158A228A228A2233306A2237
:1004A0008A228A2232306A228A228A2228306A22CA
:1004B0008A228A220C306A228A228A2206306A2202
:1004C0008A228A2201306A228A228A220800013086
:1004D0006A2208000811F300F039880088158A2282
:1004E0008811730EF039880088158A2288118A22B3
:1004F00008000815F4007408F039043E88008815D7
:100500008A228811740EF039043E880088158A22E8
:10051000881108001430F200FF30F100F10B8E2A30
:10052000F20B8C2A080083160313940118308316EB
:100530000313930008308312031394009416831658
:10054000031311151119A22A08008316031311149D
:100550001118A82AD03083120313930083160313B3
:100560001419B02A8316031383160313111BD92AF7
:100570008312031373088312031393008316031368
:100580001419C02A8316031383160313111BD92AC7
:100590008312031374088312031393008316031347
:1005A0001419D02A8316031383160313111BD92A97
:1005B000DA2A00008316031311151119DD2A080029
:1005C0008316031311141118E32AD0308312031376
:1005D0009300831603131419EB2A8316031383164F
:1005E0000313111B282B83120313730883120313A5
:1005F0009300831603131419FB2A8316031383161F
:100600000313111B282B8316031391149118062B27
:10061000D1308312031393008316031314190E2B86
:100620008316031383160313111B282B831603133E
:1006300091159119192B83120313130883120313B5
:10064000F5008316031391161116111A252B292B69
:10065000000083160313111511192C2B08008312A7
:100660000313F600760E0F39303EF70083120313A2
:1006700076080F39303EF800080083160313111472
:100680001118402B103083120313930083160313A9
:100690001419482B8316031383160313111B612BA4
:1006A000831203137008831203139300831603133A
:1006B0001419582B8316031383160313111B612B74
:1006C000612B8316031311151119642B080083166F
:1006D0000313111411186A2B1130831203139300A2
:1006E000831603131419722B831603138316031333
:1006F000111B8B2B83160313911591197D2B8312DC
:100700000313130883120313F000831603139116C7
:100710001116111A892B83160313111511198E2B1B
:020720000800CF
:02400E00723FFF
:00000001FF
