:020000040000FA
:020000000528D1
:040002000034003492
:080008006D2883168B010E30F8
:100010009F0011308500F3308600183087000230D1
:10002000880000308900FF3092008312FF30950075
:10003000FF309B003C3097003C309D000530920023
:1000400091011211103090008F018E017B228501E9
:100050008601870188018901CB01CA01C201C7015C
:100060008713FD20861C3228060E0F399922861828
:10007000372899225B225B22871212153F286A22B9
:100080006A226A226A226A229820253047020318CF
:100090003F2887176A226A2208108810C701B60114
:1000A00087134C3084005428782054288B015B221D
:1000B00087165B225B225B22982025304702031CB7
:1000C0005C2862285B22642895019B011A21861C0A
:1000D0006728060E0F399922CB28B100030EB20013
:1000E0000B108B109120320E8300B10E310E0900DF
:1000F0001030C3000910891005158516C1309F0006
:10010000752275227522752275221F151F198628E2
:100110001E08C83C031C080087175B2287136A224D
:100120000800C50A0630C502031DC60AC50108003D
:10013000081475220810881C9B28101488189E2803
:1001400010100F08B3000E08B4008F018E013A3072
:10015000B5004E223608C700080008304702031CCD
:100160000800871AC2289B016A226A226A226A2230
:100170006A22FF309B00080008304702031808007D
:10018000871AB32895016A226A226A226A226A22A1
:10019000FF30950008005430AB224930AB224D307F
:1001A000AB224530AB223A30AB222030AB22C030FC
:1001B0009C2237215B225B2299224C3084005330F1
:1001C000AB225030AB224F30AB225430AB223A300E
:1001D000AB222030AB220008AB226330AB226D3063
:1001E000AB225B229922840ACA0BDF284530AB225E
:1001F0004E30AB224430AB227A2A4830AB22493011
:10020000AB225430AB222030AB222A30AB2220303C
:10021000AB225430AB224F30AB222030AB225330D4
:10022000AB225430AB224130AB225230AB2254309F
:10023000AB2208004830AB224930AB225430AB220D
:100240002030AB222A30AB222030AB224630AB220A
:100250004F30AB225230AB222030AB224430AB22A5
:100260004130AB225430AB224130AB2208004E303B
:10027000AB225530AB224D30AB222030AB22533075
:10028000AB225030AB224F30AB225430AB22533034
:10029000AB223A30AB222030AB224B08303EAB22AF
:1002A0000800013083120313F30012238312031397
:1002B000750861237708BB007808BA000030831204
:1002C0000313F300122383120313750861237708C5
:1002D000BD007808BC000800013083120313F3004E
:1002E000122383120313750861237708BF0078086F
:1002F000BE00003083120313F30012238312031392
:10030000750861237708C1007808C0000800013033
:100310009C223230AB223030AB22063083120313E2
:10032000F300122383120313750861237708AB22AD
:100330007808AB222F30AB22053083120313F30071
:10034000122383120313750861237708AB22780800
:10035000AB222F30AB22043083120313F30012239D
:1003600083120313750861237708AB227808AB2248
:10037000C0309C22023083120313F3001223831235
:100380000313750861237708AB227808AB223A3053
:10039000AB22013083120313F300122383120313E1
:1003A000750861237708AB227808AB223A30AB227C
:1003B000003083120313F300122383120313750812
:1003C00061237708AB227808AB220800831203135D
:1003D000F40183120313F301D72283120313F30AE8
:1003E000D72283120313F30AD72283120313F30ACB
:1003F000D72283120313F30AD72283120313F30ABB
:10040000D72283120313F30AD72283120313003077
:10041000F300831203138030F400D72283120313F6
:100420000630F300831203131630F400D722831230
:1004300003130530F300831203130430F400D722B2
:10044000831203130430F300831203130630F40005
:10045000D722831203130330F300831203130230F5
:10046000F400D722831203130230F3008312031324
:100470000030F400D722831203130130F3008312FB
:1004800003130030F400D722831203130030F3006B
:10049000831203130030F400D7220800B601350898
:1004A000B402031C542A582A0130B302031C5A2AEE
:1004B000B60A4F2A08001530B7007430B80006306D
:1004C000B900B70B642AB80B662AB90B612A682AEF
:1004D000692A08008630B7001430B800B70B712ABB
:1004E000B80B6E2A732A000008000F30B700B70B54
:0604F000772A08007A2AB9
:0A04F60083128815BC22BC22BC2230
:1005000033309C22BC22BC2232309C22BC22BC2232
:1005100028309C22BC22BC220C309C22BC22BC2253
:1005200006309C22BC22BC2201309C22BC22BC2270
:10053000080001309C2208000811F300F0398800FF
:100540008815BC228811730EF03988008815BC22EA
:100550008811BC2208000815F4007408F039043E24
:1005600088008815BC228811740EF039043E88007A
:100570008815BC22881108001430F200FF30F10009
:10058000F10BC02AF20BBE2A080083160313940154
:10059000183083160313930008308312031394005A
:1005A00094168316031311151119D42A0800831603
:1005B000031311141118DA2AD03083120313930095
:1005C000831603131419E22A8316031383160313E5
:1005D000111B0B2B83120313730883120313930055
:1005E000831603131419F22A8316031383160313B5
:1005F000111B0B2B83120313740883120313930034
:10060000831603131419022B831603138316031383
:10061000111B0B2B0C2B0000831603131115111942
:100620000F2B08008316031311141118152BD0304B
:100630008312031393008316031314191D2B8316BF
:10064000031383160313111B5A2B8312031373080E
:100650008312031393008316031314192D2B83168F
:10066000031383160313111B5A2B831603139114C0
:100670009118382BD1308312031393008316031380
:100680001419402B8316031383160313111B5A2BC3
:1006900083160313911591194B2B8312031313081F
:1006A00083120313F5008316031391161116111A02
:1006B000572B5B2B000083160313111511195E2BAA
:1006C000080083120313F600760E0F39303EF70050
:1006D0008312031376080F39303EF80008008316A2
:1006E000031311141118722B10308312031393008B
:1006F0008316031314197A2B83160313831603131B
:10070000111B932B8312031370088312031393009E
:100710008316031314198A2B8316031383160313EA
:10072000111B932B932B8316031311151119962B61
:10073000080083160313111411189C2B1130831217
:1007400003139300831603131419A42B83160313A6
:1007500083160313111BBD2B8316031391159119D7
:10076000AF2B83120313130883120313F0008316B5
:10077000031391161116111ABB2B831603131115AF
:060780001119C02B080056
:02400E00723FFF
:00000001FF
