:020000040000FA
:020000000528D1
:040002000034003492
:08000800412883168B0106302C
:100010009F0010308500F3308600993087008801FA
:1000200007308900FF3092008312FF309500FF30C7
:100030009B00FF309700FF309D000530920091013A
:100040001211103090008F018E01B522CB01CA0130
:10005000C201C701C8012121861C2C28060E0F39B8
:10006000D32286183128D322871212153F28A220C6
:100070007720A22008304702031837283F284C2059
:100080003F28B100030EB2000B108B107120320E0E
:100090008300B10E310E09001030C300C3030510F8
:1000A000431805148510C318851405114319051547
:1000B0008511C31985158E228E228E228E228E22C4
:1000C0008E228E228E228E228E2207186D280814F0
:1000D0007F2246089700CB0A0810C30AC30B4E289C
:1000E0000800C50A0630C502031CC60A080008300D
:1000F000470203187C2884288516A42285128E22A4
:100100008E228E228E22080085169922992285122F
:100110008E228E228E228E2208008615AF22861114
:10012000061E90281014061A932810100F08B3000A
:100130000E08B4008F018E013A30B50072223608E5
:10014000C80008000717AF228713871FA5281014BF
:10015000871BA82810100F08B3000E08B4008F01E9
:100160008E013A30B50072223608C700080002300E
:100170004702031C08000814950197018E228E2265
:100180008E22FF309500081008004708053C031C2C
:1001900008009B019D018E228E228E22FF309B0043
:1001A00008008B0187127720A2200830470203182D
:1001B000D128DA287F227F227F227F22DF28121196
:1001C00097019D0190213E21861CE428060E0F39DF
:1001D000D322EA285430E5224930E5224D30E52289
:1001E0004530E5223A30E5222030E5220130831205
:1001F0000313F3004C238312031375089B23770822
:10020000E5227808E5223A30E52200308312031314
:10021000F3004C238312031375089B237708E52210
:100220007808E522C030D6225B217F227F22D322AC
:100230004C3084004530E5224E30E5224430E52242
:10024000B42A4830E5224930E5225430E5222030F6
:10025000E5222A30E5222030E5225430E5224F30D5
:10026000E5222030E5225330E5225430E5224130AA
:10027000E5225230E5225430E52208004830E522DC
:100280004930E5225430E5222030E5222A30E522AB
:100290002030E5224630E5224F30E5225230E5227B
:1002A0002030E5224430E5224130E5225430E52279
:1002B0004130E52208004E30E5225530E5224D3030
:1002C000E5222030E5225330E5225030E5224F3040
:1002D000E5225430E5225330E5223A30E522203041
:1002E000E5224B08303EE52208000130831203135B
:1002F000F3004C238312031375089B237708BB007C
:100300007808BA00003083120313F3004C238312E1
:10031000031375089B237708BD007808BC0008000C
:10032000013083120313F3004C2383120313750867
:100330009B237708BF007808BE00003083120313A8
:10034000F3004C238312031375089B237708C10025
:100350007808C00008000130D6223230E522303063
:10036000E522063083120313F3004C238312031398
:1003700075089B237708E5227808E5222F30E522CF
:10038000053083120313F3004C2383120313750803
:100390009B237708E5227808E5222F30E5220430F8
:1003A00083120313F3004C238312031375089B235A
:1003B0007708E5227808E522C030D6220230831281
:1003C0000313F3004C238312031375089B23770850
:1003D000E5227808E5223A30E52201308312031342
:1003E000F3004C238312031375089B237708E5223F
:1003F0007808E5223A30E522003083120313F30037
:100400004C238312031375089B237708E522780891
:10041000E522080083120313F40183120313F3018E
:10042000112383120313F30A112383120313F30A14
:10043000112383120313F30A112383120313F30A04
:10044000112383120313F30A112383120313F30AF4
:100450001123831203130030F3008312031380303F
:10046000F4001123831203130630F30083120313E5
:100470001630F4001123831203130530F3008312A6
:1004800003130430F4001123831203130430F30028
:10049000831203130630F400112383120313033075
:1004A000F300831203130230F400112383120313A9
:1004B0000230F300831203130030F400112383127F
:1004C00003130130F300831203130030F4001123EF
:1004D000831203130030F300831203130030F4007F
:1004E00011230800B6013508B402031C782A7C2ABF
:1004F0000130B302031C7E2AB60A732A08001530A5
:10050000B7007430B8000630B900B70B882AB80BB2
:100510008A2AB90B852A8C2A8D2A08008630B700D2
:100520001430B800B70B952AB80B922A972A00000E
:1005300008001830B7000530B800B70BA02AB80B78
:100540009D2AA22A00000800EC30B7000330B80052
:10055000B70BAB2AB80BA82AAD2A000008000F3051
:0A056000B700B70BB12A0800B42A57
:06056A0083128815F62241
:10057000F622F6223330D622F622F6223230D62266
:10058000F622F6222830D622F622F6220C30D62287
:10059000F622F6220630D622F622F6220130D622A4
:1005A000F622F62208000130D62208000811F300D6
:1005B000F03988008815F6228811730EF03988000A
:1005C0008815F6228811F62208000815F400740830
:1005D000F039043E88008815F6228811740EF0392F
:1005E000043E88008815F622881108001430F200B5
:1005F000FF30F100F10BFA2AF20BF82A08008316FB
:1006000003139401183083160313930008308312E8
:1006100003139400941683160313111511190E2B4E
:1006200008008316031311141118142BD0308312F1
:10063000031393008316031314191C2B831603133F
:1006400083160313111B452B8312031373088312A4
:10065000031393008316031314192C2B831603130F
:1006600083160313111B452B831203137408831283
:10067000031393008316031314193C2B83160313DF
:1006800083160313111B452B462B000083160313FF
:1006900011151119492B0800831603131114111891
:1006A0004F2BD030831203139300831603131419B6
:1006B000572B8316031383160313111B942B8312DA
:1006C000031373088312031393008316031314197F
:1006D000672B8316031383160313111B942B8316A6
:1006E000031391149118722BD130831203139300CA
:1006F0008316031314197A2B83160313831603131B
:10070000111B942B8316031391159119852B8312BA
:100710000313130883120313F500831603139116B2
:100720001116111A912B952B000083160313111526
:100730001119982B080083120313F600760E0F3957
:10074000303EF7008312031376080F39303EF8006D
:1007500008008316031311141118AC2B10308312E8
:1007600003139300831603131419B42B8316031376
:1007700083160313111BCD2B8312031370088312EE
:1007800003139300831603131419C42B8316031346
:1007900083160313111BCD2BCD2B831603131115B9
:1007A0001119D02B08008316031311141118D62B1E
:1007B0001130831203139300831603131419DE2BD5
:1007C0008316031383160313111BF72B83160313CE
:1007D00091159119E92B8312031313088312031344
:1007E000F0008316031391161116111AF52B8316B8
:0A07F000031311151119FA2B08006C
:02400E00723FFF
:00000001FF
