:020000040000FA
:020000000528D1
:040002000034003492
:08000800722883168B010630FB
:100010009F0010308500F3308600B93087008801DA
:1000200007308900FF3092008312FF309500FF30C7
:100030009B00FF3097009D00053092009101121146
:10004000103090008F018E018501860187018801A3
:10005000122383120313F40183120313F3012423E5
:1000600083120313F30A242383120313F30A2423B2
:1000700083120313F30A242383120313F30A2423A2
:1000800083120313F30A242383120313F30A242392
:10009000C822D901D801D101D501D6012F21861C52
:1000A0004F28060E0F39E62286185428E6228716B6
:1000B0001215182283218B150B168B175F28B02081
:1000C000B9200830550203185F288B150B168B17C3
:1000D0006928CE20A320B920083055020318E32850
:1000E0007D206928C000030EC1000B108B10A020DA
:1000F000410E8300C00E400E09001030D200D20322
:100100000510521805148510D218851405115219BE
:1001100005158511D2198515A122A122A122A1229E
:10012000A122A122A122A122071C9C2808148D2211
:100130005408B300D90A0810D20AD20B7F2808004D
:100140001330D4070800083056020318A828B02836
:100150008516B7228512A122A122A122A122080080
:100160008516AC22AC228512A122A122A122A122B5
:1001700008008615C2228611061EBC281014061A15
:10018000BF2810100F08C2000E08C3008F018E0197
:100190003A30C40080224508D50008000717C22263
:1001A0000713871FD1281014871BD42810100F089D
:1001B000C2000E08C3008F018E013A30C4008022B5
:1001C0004508D60008008B018712B020B9205308DB
:1001D000083C031DEC28E3288D228D22EF28121104
:1001E0009E214C21861CF228060E0F39E622F828A3
:1001F0005430F8224930F8224D30F8224530F822A8
:100200003A30F8222030F822013083120313F30031
:100210005F23831203137508AE237708F82278084A
:10022000F8223A30F822003083120313F3005F23E0
:10023000831203137508AE237708F8227808F82292
:10024000C030E92269218D228D22E6225A308400B5
:100250004530F8224E30F8224430F822C72A483080
:10026000F8224930F8225430F8222030F8222A307F
:10027000F8222030F8225430F8224F30F822203073
:10028000F8225330F8225430F8224130F82252300C
:10029000F8225430F82208004830F8224930F82279
:1002A0005430F8222030F8222A30F8222030F82268
:1002B0004630F8224F30F8225230F8222030F8220F
:1002C0004430F8224130F8225430F8224130F822EC
:1002D00008004E30F8225530F8224D30F8222030F8
:1002E000F8225330F8225030F8224F30F8225430A0
:1002F000F8225330F8223A30F8222030F8225908F8
:10030000303EF8220800013083120313F3005F230C
:10031000831203137508AE237708CA007808C90052
:10032000003083120313F3005F2383120313750855
:10033000AE237708CC007808CB0008000130831288
:100340000313F3005F23831203137508AE237708AA
:10035000CE007808CD00003083120313F3005F2332
:10036000831203137508AE237708D0007808CF00F6
:1003700008000130E9223230F8223030F82206300D
:1003800083120313F3005F23831203137508AE2354
:100390007708F8227808F8222F30F82205308312E7
:1003A0000313F3005F23831203137508AE2377084A
:1003B000F8227808F8222F30F82204308312031331
:1003C000F3005F23831203137508AE237708F82226
:1003D0007808F822C030E922023083120313F300B8
:1003E0005F23831203137508AE237708F822780879
:1003F000F8223A30F822013083120313F3005F230E
:10040000831203137508AE237708F8227808F822C0
:100410003A30F822003083120313F3005F23831273
:1004200003137508AE237708F8227808F82208002D
:1004300083120313F40183120313F30124238312A1
:100440000313F30A242383120313F30A24238312CE
:100450000313F30A242383120313F30A24238312BE
:100460000313F30A242383120313F30A24238312AE
:1004700003130030F300831203138030F4002423AD
:10048000831203130630F300831203131630F400B3
:100490002423831203130530F30083120313043063
:1004A000F4002423831203130430F3008312031394
:1004B0000630F4002423831203130330F300831265
:1004C00003130230F4002423831203130230F300D9
:1004D000831203130030F40024238312031301302A
:1004E000F300831203130030F40024238312031358
:1004F0000030F300831203130030F40024230800BB
:10050000C5014408C302031C862A8A2A0130C2029C
:10051000031C8C2AC50A812A08001530C6007430D5
:10052000C7000630C800C60B962AC70B982AC80B0E
:10053000932A9A2A9B2A0800FF30BF00BF0B9E2AED
:1005400008008630C6001430C700C60BA82AC70BA7
:10055000A52AAA2A000008001830C6000530C700E6
:10056000C60BB32AC70BB02AB52A00000800EC302E
:10057000C6000330C700C60BBE2AC70BBB2AC02A61
:10058000000008000F30C600C60BC42A0800C72AA6
:10059000831288150923092309233330E92209230B
:1005A00009233230E922092309232830E9220923CB
:1005B00009230C30E922092309230630E922092303
:1005C00009230130E9220923092308000130E92227
:1005D00008000811F300F0398800881509238811F4
:1005E000730EF03988008815092388110923080043
:1005F0000815F4007408F039043E880088150923B2
:100600008811740EF039043E88008815092388117A
:1006100008001430F200FF30F100F10B0D2BF20B4B
:100620000B2B080083160313940118308316031351
:100630009300083083120313940094168316031357
:1006400011151119212B0800831603131114111809
:10065000272BD0308312031393008316031314192E
:100660002F2B8316031383160313111B582B83128E
:1006700003137308831203139300831603131419CF
:100680003F2B8316031383160313111B582B83125E
:1006900003137408831203139300831603131419AE
:1006A0004F2B8316031383160313111B582B592B3F
:1006B000000083160313111511195C2B0800831613
:1006C000031311141118622BD030831203139300FB
:1006D0008316031314196A2B83160313831603134B
:1006E000111BA72B831203137308831203139300A8
:1006F0008316031314197A2B83160313831603131B
:10070000111BA72B8316031391149118852BD1303D
:100710008312031393008316031314198D2B83166E
:10072000031383160313111BA72B831603139115B1
:100730009119982B83120313130883120313F500E6
:100740008316031391161116111AA42BA82B00005F
:100750008316031311151119AB2B08008312031311
:10076000F600760E0F39303EF70083120313760839
:100770000F39303EF80008008316031311141118C6
:10078000BF2B103083120313930083160313141925
:10079000C72B8316031383160313111BE02B83123D
:1007A00003137008831203139300831603131419A1
:1007B000D72B8316031383160313111BE02BE02B97
:1007C0008316031311151119E32B08008316031365
:1007D00011141118E92B113083120313930083169F
:1007E00003131419F12B8316031383160313111B20
:1007F0000A2C8316031391159119FC2B83120313F2
:10080000130883120313F0008316031391161116B5
:10081000111A082C83160313111511190D2C080039
:02400E00723FFF
:00000001FF
