:020000040000FA
:020000000528D1
:040002000034003492
:0800080033288316183085002F
:10001000F3308600793087008801073089009F30EF
:100020009200831295010C3097008B150B168B17DD
:100030000230920091011215850187018520A720C9
:10004000861C2028060E0F390E21861825288516B5
:100050000E218512C4203E28950F2C282F289503A9
:10006000950B2F282C28F400030EF5000B108B1095
:10007000750E8300F40E740E09003D28861C3E2880
:10008000060E0F390E2144280430F7003430F600F4
:10009000E12024212421242124212421242124217C
:1000A000242124212421242124210E21783084009C
:1000B0003130F8003330F9003630FA003830FB00C8
:1000C0005330FE205030FE204F30FE205430FE20B2
:1000D0003A30FE202030FE200008FE20242124217A
:1000E00024212421242124212421242124212421E8
:1000F000242124210E21840AF70B60284530FE209C
:100100004E30FE204430FE203629831288152D21E2
:100110002D212D21081130301F212D212D211421B9
:100120002D211421142120301F212D212D211421B6
:100130002830FE202D212D210F30FE202D212D21B4
:100140000630FE202D212D210E21081508004830F3
:10015000FE204930FE205430FE202030FE202A3080
:10016000FE202030FE205430FE204F30FE20203074
:10017000FE205330FE205430FE204130FE2052300D
:10018000FE205430FE2008004830FE204930FE207A
:100190005430FE202030FE202A30FE202030FE2069
:1001A0004630FE204F30FE205230FE202030FE2010
:1001B0004430FE204130FE205430FE204130FE20ED
:1001C00008004E30FE205530FE204D30FE202030FD
:1001D000FE205330FE205030FE204F30FE205430A1
:1001E000FE205330FE203A30FE202030FE207608DC
:1001F000FE202030FE202030FE200800F0001F21CD
:100200001421700E1F211421080008111830FE203F
:10021000242124212421242108150800081101305B
:10022000FE202D2108150800FF30F100F10B1629E2
:100230008811FF30F100F10B1B2988150800F039F7
:1002400088040F3888050800FF30F300FF30F10004
:10025000F10B2829F30B262908001430F200FF3097
:0E026000F100F10B3129F20B2F29080036298D
:02400E00723FFF
:00000001FF
