:020000040000FA
:020000000528D1
:040002000034003492
:0800080034288316183085002E
:10001000F3308600793087008801073089009F30EF
:100020009200831295010C3097008B150B168B17DD
:100030000230920091011215850187015020722033
:10004000861C2028060E0F394B20D920861826281A
:100050008516D92085128F203F28950F2D2830280E
:100060009503950B30282D28F400030EF5000B1096
:100070008B10750E8300F40E740E09003E28861C4A
:100080003F28060E0F394B20D92046283730F6007E
:10009000AC20D020492882072A3430342334443419
:1000A00083128815F820F820F82008113030EA2053
:1000B000F820F820DF20F820DF20DF202030EA20A1
:1000C000F820F820DF202830C920F820F8200F3051
:1000D000C920F820F8200630C920F820F820D920BF
:1000E000081508004830C9204930C9205430C920BB
:1000F0002030C9202A30C9202030C9205430C920DE
:100100004F30C9202030C9205330C9205430C92075
:100110004130C9205230C9205430C920080048302D
:10012000C9204930C9205430C9202030C9202A3084
:10013000C9202030C9204630C9204F30C920523054
:10014000C9202030C9204430C9204130C920543052
:10015000C9204130C92008004E30C9205530C9207F
:100160004D30C9202030C9205330C9205030C9201B
:100170004F30C9205430C9205330C9203A30C920EB
:100180002030C9207608C9202030C9202030C9205D
:100190000800F000EA20DF20700EEA20DF200800CF
:1001A00008111830C920EF20EF20EF20EF200815AC
:1001B000080008110130C920F82008150800FF3098
:1001C000F100F10BE1288811FF30F100F10BE62876
:1001D00088150800F03988040F3888050800FF30BA
:1001E000F300FF30F100F10BF328F30BF1280800C6
:1001F0001430F200FF30F100F10BFC28F20BFA286A
:020200000800F4
:02400E00723FFF
:00000001FF
