:020000040000FA
:020000000528D1
:040002000034003492
:080008002A2883161830850038
:10001000F3308600793087008801073089009F30EF
:100020009200831295010C3097008B150B168B17DD
:10003000023092009101121539205B20861C1E2887
:10004000060E0F3934207820861824287F2028288F
:1000500028282928F300030EF4000B108B10740ECF
:100060008300F30E730E090082072A3430342334E0
:100070004434831288159420942094200811303041
:100080008F20942094208420942084208420203069
:100090008F2094209420842028307820942094204D
:1000A0000F307820942094200630782094209420DB
:1000B0007F200815080048307820493078205430D7
:1000C0007820203078202A30782020307820543052
:1000D00078204F30782020307820533078205430EA
:1000E0007820413078205230782054307820080031
:1000F000F0008F208420700E8F20842008000811CB
:100100000130782094200800FF30F100F10B8628A0
:100110008811FF30F100F10B8B2888150800F039A9
:1001200088040F38880508001430F200FF30F10011
:0A013000F10B9828F20B9628080046
:02400E00723FFF
:00000001FF
