:020000040000FA
:020000001928BD
:040002000034003492
:100030000900F8308B0083168501F23086008701B5
:1000400088018312850186018701880135205720A8
:10005000861C2828060E0F393020742086182E287A
:1000600082072A3430342334443483128815902094
:1000700090209020081130308B20902090208020FC
:1000800090208020802020308B2090209020802085
:1000900028307420902090200F30742090209020E1
:1000A00006307420902090207B20081508004830EE
:1000B00074204930742054307420203074202A3049
:1000C000742020307420543074204F30742020303D
:1000D00074205330742054307420413074205230D6
:1000E0007420543074200800F0008B208020700EA3
:1000F0008B20802008000811013074209020080017
:10010000FF30F100F10B82288811FF30F100F10B74
:10011000872888150800F03988040F3888050800FA
:100120001430F200FF30F100F10B9428F20B92280A
:020130000800C5
:02400E00723FFF
:00000001FF
