:020000040000FA
:020000000528D1
:040002000034003492
:0800080033288316183085002F
:10001000F33086007930870088010730890080300E
:100020009200831295019B010C3097009D008B1567
:100030000B168B1702309200910112158501870172
:10004000A220C420861C2228060E0F3927218618DC
:1000500027288516272185122E282D283D2044206B
:10006000542059202E28C000030EC1000B108B1005
:10007000410E8300C00E400E09008510950F3D28EB
:100080008514950B4028080005119B0F4428051581
:100090009B0B472808004B280301450847024608E8
:1000A000C907CA0208000800861501208611012030
:1000B00008000800861C5A28060E0F3927216028E0
:1000C0000430CB003430CC00FE203D213D213D21C9
:1000D0003D213D213D213D213D213D213D213D2130
:1000E0003D2127214D3084003130CD003330CE000A
:1000F0003630CF003830D000533017215030172120
:100100004F301721543017213A3017212030172152
:1001100000081721633017216D3017213D213D2143
:100120003D213D213D213D213D213D213D212721F5
:10013000840ACB0B7C28453017214E3017214430E0
:100140001721EF29831288154621462146210811DF
:1001500030303821462146212D2146212D212D21C7
:1001600020303821462146212D21283017214621D3
:1001700046210F30172146214621063017214621FE
:10018000462127210815080048301721493017213A
:1001900054301721203017212A3017212030172101
:1001A000543017214F301721203017215330172199
:1001B0005430172141301721523017215430172164
:1001C00008004830172149301721543017212030BA
:1001D00017212A30172120301721463017214F30A0
:1001E0001721523017212030172144301721413078
:1001F0001721543017214130172108004E301721A4
:10020000553017214D301721203017215330172139
:10021000503017214F3017215430172153301721F8
:100220003A301721203017214C0817210800BC0054
:1002300038212D213C0E38212D21080008111830BD
:1002400017213D213D213D213D21081508000811C0
:1002500001301721462108150800FF30BD00BD0BF5
:100260002F298811FF30BD00BD0B342988150800E7
:10027000F03988040F3888050800FF30BF00FF30D0
:10028000BD00BD0B4129BF0B3F2908001430BE0043
:10029000FF30BD00BD0B4A29BE0B482908000C30B9
:1002A00017214D301721493017214E3017212030AA
:1002B00017212030172153301721453017214330A3
:1002C00017210A3017210D3017210130B6009C216B
:1002D00039087721203017212030172120301721AD
:1002E0000030B6009C2139087721E6214F29BA0059
:1002F0003A0E0F39303E17213A080F39303E172198
:1003000008008312031399008316981C8529831211
:100310000800B321D030D321111B97293608D321EF
:10032000111B97293708D321111B97299A2983126A
:1003300045308121BF210800B321D030D321111BCA
:10034000AE293608D321111BAE29B921D130D321D2
:10035000111BAE29DD21B900CC21B1298312453012
:100360008121BF2108008316031311141118B62927
:1003700008008316031391149118BC2908008316F2
:10038000031311151119C2290800831603139112C2
:100390001116111AC9290800831603139116111694
:1003A000111AD02908008312031393008316031334
:1003B0001419D82983160313080083160313911503
:1003C0009119E02983120313130808000030B000CC
:1003D0000030B100B10BEA29B00BE8290800EF2981
:02400E00723FFF
:00000001FF
