:020000040000FA
:020000000528D1
:040002000034003492
:08000800432883168B0106302A
:100010009F0018308500F330860079308700880112
:1000200007308900FF30920083126430950006305B
:100030009B00FF3097009D00053092009101121146
:10004000103090008F018E018501860187018801A3
:1000500045220030D900D800D100DF20861C2E2890
:10006000060E0F396322861833286322871612156D
:1000700042287C205308053C031D39288B150B169C
:100080008B1742284228C000030EC1000B108B10B2
:100090007820410E8300C00E400EA82809001030C1
:1000A000D200D2030910521809140510D2180514F1
:1000B0008510521985140511D21905153A223A22D4
:1000C0003A223A223A223A223A223A223A223A2250
:1000D0003A223A223A22071C6F2885165408B307A1
:1000E000D90AD20A52088512D20AD20B5128080026
:1000F0001330D40708007B2886153F228611061E80
:100100007F281014061A822810100F08C2000E084B
:10011000C3008F018E013A30C4002D224508D5005E
:10012000080087153F228711071E94281014071A0C
:10013000972810100F08C2000E08C3008F018E010F
:100140003A30C4002D224508D60008008712080066
:100150004B21FC20861CA828060E0F396322B028EC
:1001600019213A223A223A223A223A223A223A22D1
:1001700063225A30840053307522503075224F303C
:100180007522543075223A30752220307522633042
:1001900075226D3075223A223A223A223A223A22C8
:1001A0003A223A223A223A226322840AD80BBB2806
:1001B000453075224E30752244307522442A48302D
:1001C00075224930752254307522203075222A302C
:1001D000752220307522543075224F307522203020
:1001E00075225330752254307522413075225230B9
:1001F0007522543075220800483075224930752226
:1002000054307522203075222A3075222030752214
:10021000463075224F3075225230752220307522BB
:100220004430752241307522543075224130752298
:1002300008004E307522553075224D307522203021
:10024000752253307522503075224F30752254304C
:100250007522533075223A307522203075220800FD
:10026000013083120313F300DC2283120313750899
:100270002B237708CA007808C900003083120313C3
:10028000F300DC228312031375082B237708CC00BC
:100290007808CB000800013083120313F300DC223E
:1002A0008312031375082B237708CE007808CD003E
:1002B000003083120313F300DC228312031375084A
:1002C0002B237708D0007808CF0008000130662281
:1002D0003230752230307522063083120313F3005A
:1002E000DC228312031375082B2377087522780804
:1002F00075222F307522053083120313F300DC22A0
:100300008312031375082B2377087522780875224A
:100310002F307522043083120313F300DC22831282
:10032000031375082B237708752278087522C030CF
:100330006622023083120313F300DC2283120313BC
:1003400075082B2377087522780875223A307522B4
:10035000013083120313F300DC22831203137508A8
:100360002B2377087522780875223A3075220030E1
:1003700083120313F300DC228312031375082B236B
:100380007708752278087522080083120313F40198
:1003900083120313F301A12283120313F30AA12290
:1003A00083120313F30AA12283120313F30AA12277
:1003B00083120313F30AA12283120313F30AA12267
:1003C00083120313F30AA122831203130030F300F4
:1003D000831203138030F400A1228312031306302A
:1003E000F300831203131630F400A12283120313C7
:1003F0000530F300831203130430F400A1228312AA
:1004000003130430F300831203130630F400A12217
:10041000831203130330F300831203130230F4003A
:10042000A122831203130230F3008312031300305E
:10043000F400A122831203130130F300831203138B
:100440000030F400A122831203130030F300831262
:1004500003130030F400A1220800C5014408C302C0
:10046000031C332A372A0130C202031C392AC50A69
:100470002E2A0800FF30BF00BF0B3C2A08002130A5
:0A048000C600C60B412A0800442AFA
:06048A0083128815862292
:1004900086228622333066228622862232306622E7
:1004A0008622862228306622862286220C30662208
:1004B0008622862206306622862286220130662225
:1004C0008622862208000130662208000811F30007
:1004D000F0398800881586228811730EF03988005B
:1004E000881586228811862208000815F4007408F1
:1004F000F039043E8800881586228811740EF03980
:10050000043E880088158622881108001430F20005
:10051000FF30F100F10B8A2AF20B882A08008316BB
:1005200003139401183083160313930008308312C9
:1005300003139400941683160313111511199E2AA0
:1005400008008316031311141118A42AD030831243
:1005500003139300831603131419AC2A8316031391
:1005600083160313111BD52A8312031373088312F6
:1005700003139300831603131419BC2A8316031361
:1005800083160313111BD52A8312031374088312D5
:1005900003139300831603131419CC2A8316031331
:1005A00083160313111BD52AD62A000083160313C2
:1005B00011151119D92A08008316031311141118E3
:1005C000DF2AD03083120313930083160313141908
:1005D000E72A8316031383160313111B242B83129C
:1005E0000313730883120313930083160313141960
:1005F000F72A8316031383160313111B242B831668
:10060000031391149118022BD1308312031393001A
:100610008316031314190A2B83160313831603136B
:10062000111B242B8316031391159119152B83127B
:100630000313130883120313F50083160313911693
:100640001116111A212B252B0000831603131115E7
:100650001119282B080083120313F600760E0F39A8
:10066000303EF7008312031376080F39303EF8004E
:10067000080083160313111411183C2B1030831239
:1006800003139300831603131419442B83160313C7
:1006900083160313111B5D2B83120313700883123F
:1006A00003139300831603131419542B8316031397
:1006B00083160313111B5D2B5D2B8316031311157A
:1006C0001119602B08008316031311141118662BDF
:1006D00011308312031393008316031314196E2B26
:1006E0008316031383160313111B872B831603131F
:1006F00091159119792B8312031313088312031395
:10070000F0008316031391161116111A852B831608
:0A0710000313111511198A2B0800BC
:02400E00723FFF
:00000001FF
