:020000040000FA
:020000000528D1
:040002000034003492
:08000800D72883168B010E308E
:100010009F0011308500F3308600183087000230D1
:10002000880000308900FF3092008312FF30950075
:10003000F0309B003C309700FC309D000530920072
:1000400091011211103090008F018E01E022831275
:100050000313F40183120313F301F2228312031337
:10006000F30AF22283120313F30AF2228312031318
:10007000F30AF22283120313F30AF2228312031308
:10008000F30AF22283120313F30AF2229622850165
:100090008601870188018901C901C801C101C60122
:1000A000C830F200C930F300CA30F400CB30F5009C
:1000B000CC30F600CD30F700CE30F800CF30F9006C
:1000C000D030FA00D130FB00D230FC00D330FD003C
:1000D00087139221861C6A28060E0F39B4228618CF
:1000E0006F28B42276227622121576288522852260
:1000F000852285228522172125304602031876287D
:1001000087178522852208108810C601B5018B1536
:100110000B168B1787134A3084008E288522852280
:1001200085228522852217212C21392185228522AD
:10013000852285221721253046020318A128E220B6
:100140008E288B019B0176227622762285228522BB
:100150008522852285228522852285228522852267
:100160008522852285228522852285228522852257
:100170008522852285228522852285228522852247
:10018000852285228522F0309B00762276227622F7
:100190007622762276227622CD2895019B014E2268
:1001A000AF21861CD128060E0F39B4224B29B0008E
:1001B000030EB1000B108B101021310E8300B00E16
:1001C000300E09000C30C2007230C2030910421810
:1001D00009148910C21889140511421905158512D0
:1001E000C219851685228522C1309F009022902257
:1001F0009022902290221F151F19FC281E08F03C07
:1002000003180C2987177008840087177622450881
:100210008000C90A840A8713C20AC20BE5280800B5
:10022000C40A0630C402031DC50AC401080008142C
:1002300090220810881C1A29101488181D291010E3
:100240000F08B2000E08B3008F018E013A30B400DF
:1002500069223508C60008000C304602031C3D29FF
:10026000950185228522852285228522F030950000
:1002700008000C304602031808009B0185228522E5
:100280008522852285228522852285228522852236
:10029000FF309B0008005430C6224930C6224D3042
:1002A000C6224530C6223A30C6222030C6223E0839
:1002B000C6223D08C6223A30C6224008C6223F0860
:1002C000C622C030B722CC2176227622B4224C300E
:1002D0008400C919722949197229C9187229491843
:1002E00072298A295330C6225030C6224F30C62286
:1002F0005430C6223A30C6222030C6220008303E92
:10030000C6226330C6226D30C6227622B422840A09
:10031000C80B7229B4224530C6224E30C622443062
:10032000C622952A4830C6224930C6225430C622F9
:100330002030C6222A30C6222030C6225430C6229F
:100340004F30C6222030C6225330C6225430C62237
:100350004130C6225230C6225430C62208004830EE
:10036000C6224930C6225430C6222030C6222A3046
:10037000C6222030C6224630C6224F30C622523016
:10038000C6222030C6224430C6224130C622543014
:10039000C6224130C62208004E30C6225530C62241
:1003A0004D30C6222030C6225330C6225030C622DD
:1003B0004F30C6225430C6225330C6223A30C622AD
:1003C0002030C6224908303EC6220800831203139B
:1003D000F40183120313F301F22283120313F30ACD
:1003E000F22283120313F30AF22283120313F30A95
:1003F000F22283120313F30AF22283120313F30A85
:10040000F22283120313F30AF22283120313003041
:10041000F300831203138030F400F22283120313DB
:100420000630F300831203131630F400F222831215
:1004300003130530F300831203130430F400F22297
:10044000831203130430F300831203130630F40005
:10045000F222831203130330F300831203130230DA
:10046000F400F222831203130230F3008312031309
:100470000030F400F222831203130130F3008312E0
:1004800003130030F400F222831203130030F30050
:10049000831203130030F400F222080001308312AB
:1004A0000313F3002D238312031375087C237708AD
:1004B000BE007808BD00003083120313F3002D2323
:1004C0008312031375087C237708C0007808BF00E7
:1004D0000800B5013408B302031C6F2A732A0130E7
:1004E000B202031C752AB50A6A2A08001530B60044
:1004F0007430B7000630B800B60B7F2AB70B812ADC
:10050000B80B7C2A832A842A08008630B60014306F
:10051000B700B60B8C2AB70B892A8E2A0000080078
:0C0520000F30B600B60B922A0800952A96
:04052C008312881599
:10053000D722D722D7223330B722D722D722323040
:10054000B722D722D7222830B722D722D7220C3081
:10055000B722D722D7220630B722D722D72201309E
:10056000B722D722D72208000130B722080008118D
:10057000F300F03988008815D7228811730EF039FE
:1005800088008815D7228811D72208000815F400A2
:100590007408F039043E88008815D7228811740E3B
:1005A000F039043E88008815D722881108001430DD
:1005B000F200FF30F100F10BDB2AF20BD92A080020
:1005C0008316031394011830831603139300083025
:1005D0008312031394009416831603131115111933
:1005E000EF2A08008316031311141118F52AD030CE
:1005F000831203139300831603131419FD2A831621
:10060000031383160313111B262B83120313730882
:100610008312031393008316031314190D2B8316EF
:10062000031383160313111B262B83120313740861
:100630008312031393008316031314191D2B8316BF
:10064000031383160313111B262B272B000083167D
:100650000313111511192A2B080083160313111403
:100660001118302BD0308312031393008316031319
:100670001419382B8316031383160313111B752BC0
:100680008312031373088312031393008316031357
:100690001419482B8316031383160313111B752B90
:1006A0008316031391149118532BD1308312031323
:1006B00093008316031314195B2B831603138316FD
:1006C0000313111B752B8316031391159119662BB8
:1006D00083120313130883120313F5008316031305
:1006E00091161116111A722B762B00008316031324
:1006F00011151119792B080083120313F600760ED9
:100700000F39303EF7008312031376080F39303E5D
:10071000F800080083160313111411188D2B1030E4
:10072000831203139300831603131419952B831656
:10073000031383160313111BAE2B831203137008CC
:10074000831203139300831603131419A52B831626
:10075000031383160313111BAE2BAE2B8316031347
:1007600011151119B12B0800831603131114111858
:10077000B72B11308312031393008316031314193C
:10078000BF2B8316031383160313111BD82B831659
:10079000031391159119CA2B8312031313088312A3
:1007A0000313F0008316031391161116111AD62B9A
:0C07B0008316031311151119DB2B080030
:02400E00723FFF
:00000001FF
