:020000040000FA
:020000000528D1
:040002000034003492
:08000800D62883168B010E308F
:100010009F0011308500F3308600183087000230D1
:10002000880000308900FF3092008312FF30950075
:10003000FF309B003C309700FC309D000530920063
:1000400091011211103090008F018E01E62283126F
:100050000313F40183120313F301F8228312031331
:10006000F30AF82283120313F30AF822831203130C
:10007000F30AF82283120313F30AF82283120313FC
:10008000F30AF82283120313F30AF8229C22850153
:100090008601870188018901C901C801C101C60122
:1000A000C830F200C930F300CA30F400CB30F5009C
:1000B000CC30F600CD30F700CE30F800CF30F9006C
:1000C000D030FA00D130FB00D230FC00D330FD003C
:1000D00087139821861C6A28060E0F39BA228618C3
:1000E0006F28BA227C227C22121576288B228B2242
:1000F0008B228B228B221D21253046020318762865
:1001000087178B228B2208108810C601B5018B152A
:100110000B168B1787134A3084008E288B228B2274
:100120008B228B228B221D2132213F218B228B227D
:100130008B228B221D21253046020318A0288E28F1
:100140008B019B017C227C227C228B228B228B22A6
:100150008B228B228B228B228B228B228B228B2237
:100160008B228B228B228B228B228B228B228B2227
:100170008B228B228B228B228B228B228B228B2217
:100180008B228B22FF309B007C227C227C227C22D3
:100190007C227C227C22CC2895019B015422B52113
:1001A000861CD028060E0F39BA225129B000030E42
:1001B000B1000B108B101621310E8300B00E300EE3
:1001C00009000C30C2007230F1000408F000710820
:1001D0008400F10AC2030910421809148910C218D8
:1001E00089140511421905158512C21985168B222D
:1001F0008B22C1309F00962296229622962296222A
:100200001F151F1901290008FE009E02031C122958
:1002100087177008840087177C2245088000C90A68
:10022000840A8713C20AC20BE7280800C40A0630F2
:10023000C402031DC50AC401080008149622081050
:10024000881C202910148818232910100F08B200C8
:100250000E08B3008F018E013A30B4006F223508CA
:10026000C600080009304602031C432995018B2271
:100270008B228B228B228B22FF30950008000930C5
:100280004602031808009B018B228B228B228B22B3
:100290008B228B228B228B228B228B22FF309B0086
:1002A00008005430CC224930CC224D30CC2245308D
:1002B000CC223A30CC222030CC223E08CC223D0841
:1002C000CC223A30CC224008CC223F08CC22C0308D
:1002D000BD22D2217C227C22BA224C308400C81953
:1002E000782948197829C818782948187829902930
:1002F0005330CC225030CC224F30CC225430CC2240
:100300003A30CC222030CC220008303ECC22633060
:10031000CC226D30CC227C22BA22840AC80B7829E8
:10032000BA224530CC224E30CC224430CC229B2AFB
:100330004830CC224930CC225430CC222030CC2240
:100340002A30CC222030CC225430CC224F30CC2248
:100350002030CC225330CC225430CC224130CC221D
:100360005230CC225430CC2208004830CC224930C4
:10037000CC225430CC222030CC222A30CC22203047
:10038000CC224630CC224F30CC225230CC222030EE
:10039000CC224430CC224130CC225430CC224130CB
:1003A000CC2208004E30CC225530CC224D30CC220D
:1003B0002030CC225330CC225030CC224F30CC22B3
:1003C0005430CC225330CC223A30CC222030CC22B4
:1003D0004908303ECC22080083120313F401831233
:1003E0000313F301F82283120313F30AF822831292
:1003F0000313F30AF82283120313F30AF822831279
:100400000313F30AF82283120313F30AF822831268
:100410000313F30AF822831203130030F30083124C
:1004200003138030F400F822831203130630F30024
:10043000831203131630F400F822831203130530DD
:10044000F300831203130430F400F8228312031321
:100450000430F300831203130630F400F8228312F1
:1004600003130330F300831203130230F400F82265
:10047000831203130230F300831203130030F400DD
:10048000F822831203130130F300831203130030A8
:10049000F400F822831203130030F30083120313D5
:1004A0000030F400F8220800013083120313F30037
:1004B000332383120313750882237708BE0078085C
:1004C000BD00003083120313F300332383120313A0
:1004D000750882237708C0007808BF000800B501BE
:1004E0003408B302031C752A792A0130B202031CB6
:1004F0007B2AB50A702A08001530B6007430B700A0
:100500000630B800B60B852AB70B872AB80B822AAB
:10051000892A8A2A08008630B6001430B700B60B44
:10052000922AB70B8F2A942A000008000F30B600D9
:08053000B60B982A08009B2A73
:0805380083128815DD22DD228B
:10054000DD223330BD22DD22DD223230BD22DD222C
:10055000DD222830BD22DD22DD220C30BD22DD224D
:10056000DD220630BD22DD22DD220130BD22DD226A
:10057000DD2208000130BD2208000811F300F03927
:1005800088008815DD228811730EF03988008815DF
:10059000DD228811DD2208000815F4007408F03906
:1005A000043E88008815DD228811740EF039043E5F
:1005B00088008815DD22881108001430F200FF3011
:1005C000F100F10BE12AF20BDF2A08008316031376
:1005D0009401183083160313930008308312031319
:1005E000940094168316031311151119F52A0800A7
:1005F0008316031311141118FB2AD030831203132E
:100600009300831603131419032B83160313831605
:100610000313111B2C2B8312031373088312031370
:100620009300831603131419132B831603138316D5
:100630000313111B2C2B831203137408831203134F
:100640009300831603131419232B831603138316A5
:100650000313111B2C2B2D2B0000831603131115D4
:100660001119302B08008316031311141118362B9F
:10067000D0308312031393008316031314193E2BF7
:100680008316031383160313111B7B2B831203138F
:1006900073088312031393008316031314194E2B4C
:1006A0008316031383160313111B7B2B831603136B
:1006B00091149118592BD130831203139300831690
:1006C00003131419612B8316031383160313111BD1
:1006D0007B2B83160313911591196C2B8312031333
:1006E000130883120313F5008316031391161116D2
:1006F000111A782B7C2B0000831603131115111986
:100700007F2B080083120313F600760E0F39303E5C
:10071000F7008312031376080F39303EF800080003
:100720008316031311141118932B10308312031323
:1007300093008316031314199B2B8316031383163C
:100740000313111BB42B83120313700883120313BA
:100750009300831603131419AB2B8316031383160C
:100760000313111BB42BB42B83160313111511198A
:10077000B72B08008316031311141118BD2B113069
:10078000831203139300831603131419C52B8316C6
:10079000031383160313111BDE2B8316031391150A
:1007A0009119D02B83120313130883120313F00043
:1007B0008316031391161116111ADC2B83160313DB
:0807C00011151119E12B0800CD
:02400E00723FFF
:00000001FF
