:020000040000FA
:020000000528D1
:040002000034003492
:08000800412883168B0106302C
:100010009F0010308500F3308600993087008801FA
:1000200007308900FF3092008312FF309500FF30C7
:100030009B00FF309700FF309D000530920091013A
:100040001211103090008F018E01B822CB01CA012D
:10005000C201C701C8012421861C2C28060E0F39B5
:10006000D62286183128D622871212153F28A520BD
:100070007A20A52008304702031837283F284C2053
:100080003F28B100030EB2000B108B107420320E0B
:100090008300B10E310E09001030C300C3030510F8
:1000A000431805148510C318851405114319051547
:1000B0008511C319851591229122912291229122B5
:1000C0009122912291229122912291229122912298
:1000D000071870280814822246089700CB0A0810D7
:1000E000C30AC30B4E280800C50A0630C502031C0C
:1000F000C60A08000830470203187F28872885169B
:10010000A722851291229122912291220800851620
:100110009C229C22851291229122912291220800F8
:100120008615B2228611061E93281014061A9628E8
:1001300010100F08B3000E08B4008F018E013A3082
:10014000B50075223608C80008000717B2228713C9
:10015000871FA8281014871BAB2810100F08B300A6
:100160000E08B4008F018E013A30B50075223608B2
:10017000C700080008304702031C08000814950156
:100180009701912291229122FF30950008100800DA
:100190004708083C031C08009B019D019122912205
:1001A0009122FF309B0008008B0187127A20A52046
:1001B000083047020318D428DD28822282228222B6
:1001C0008222E228121197019D0193214121861C70
:1001D000E728060E0F39D622ED285430E8224930A0
:1001E000E8224D30E8224530E8223A30E82220303B
:1001F000E822013083120313F3004F238312031309
:1002000075089E237708E8227808E8223A30E82229
:10021000003083120313F3004F2383120313750876
:100220009E237708E8227808E822C030D9225E2190
:1002300082228222D6224C3084004530E8224E3081
:10024000E8224430E822B72A4830E8224930E82240
:100250005430E8222030E8222A30E8222030E822F8
:100260005430E8224F30E8222030E8225330E82290
:100270005430E8224130E8225230E8225430E8225B
:1002800008004830E8224930E8225430E822203083
:10029000E8222A30E8222030E8224630E8224F3097
:1002A000E8225230E8222030E8224430E82241306F
:1002B000E8225430E8224130E82208004E30E8229B
:1002C0005530E8224D30E8222030E8225330E82231
:1002D0005030E8224F30E8225430E8225330E822F0
:1002E0003A30E8222030E8224B08303EE82208006D
:1002F000013083120313F3004F2383120313750895
:100300009E237708BB007808BA00003083120313DD
:10031000F3004F238312031375089E237708BD0053
:100320007808BC000800013083120313F3004F2348
:100330008312031375089E237708BF007808BE0058
:10034000003083120313F3004F2383120313750845
:100350009E237708C1007808C00008000130D92228
:100360003230E8223030E822063083120313F300E3
:100370004F238312031375089E237708E822780819
:10038000E8222F30E822053083120313F3004F23B5
:100390008312031375089E237708E8227808E82261
:1003A0002F30E822043083120313F3004F2383120B
:1003B000031375089E237708E8227808E822C030E6
:1003C000D922023083120313F3004F238312031345
:1003D00075089E237708E8227808E8223A30E82258
:1003E000013083120313F3004F23831203137508A4
:1003F0009E237708E8227808E8223A30E822003085
:1004000083120313F3004F238312031375089E23F3
:100410007708E8227808E822080083120313F40121
:1004200083120313F301142383120313F30A142317
:1004300083120313F30A142383120313F30A1423FE
:1004400083120313F30A142383120313F30A1423EE
:1004500083120313F30A1423831203130030F300EF
:10046000831203138030F400142383120313063025
:10047000F300831203131630F400142383120313C2
:100480000530F300831203130430F40014238312A5
:1004900003130430F300831203130630F400142313
:1004A000831203130330F300831203130230F400AA
:1004B0001423831203130230F3008312031300305A
:1004C000F4001423831203130130F3008312031387
:1004D0000030F4001423831203130030F30083125E
:1004E00003130030F40014230800B6013508B402E9
:1004F000031C7B2A7F2A0130B302031C812AB60A1F
:10050000762A08001530B7007430B8000630B900FC
:10051000B70B8B2AB80B8D2AB90B882A8F2A902A01
:1005200008008630B7001430B800B70B982AB80B13
:10053000952A9A2A000008001830B7000530B80044
:10054000B70BA32AB80BA02AA52A00000800EC309C
:10055000B7000330B800B70BAE2AB80BAB2AB02AED
:10056000000008000F30B700B70BB42A0800B72A04
:1005700083128815F922F922F9223330D922F9227F
:10058000F9223230D922F922F9222830D922F9224F
:10059000F9220C30D922F922F9220630D922F92287
:1005A000F9220130D922F922F92208000130D9229A
:1005B00008000811F300F03988008815F922881125
:1005C000730EF03988008815F9228811F922080085
:1005D0000815F4007408F039043E88008815F922E3
:1005E0008811740EF039043E88008815F9228811AC
:1005F00008001430F200FF30F100F10BFD2AF20B7D
:10060000FB2A080083160313940118308316031382
:100610009300083083120313940094168316031377
:1006200011151119112B0800831603131114111839
:10063000172BD0308312031393008316031314195E
:100640001F2B8316031383160313111B482B8312CE
:1006500003137308831203139300831603131419EF
:100660002F2B8316031383160313111B482B83129E
:1006700003137408831203139300831603131419CE
:100680003F2B8316031383160313111B482B492B8F
:10069000000083160313111511194C2B0800831643
:1006A000031311141118522BD0308312031393002B
:1006B0008316031314195A2B83160313831603137B
:1006C000111B972B831203137308831203139300D8
:1006D0008316031314196A2B83160313831603134B
:1006E000111B972B8316031391149118752BD1307E
:1006F0008312031393008316031314197D2B83169F
:10070000031383160313111B972B831603139115E1
:100710009119882B83120313130883120313F50016
:100720008316031391161116111A942B982B00009F
:1007300083160313111511199B2B08008312031341
:10074000F600760E0F39303EF70083120313760859
:100750000F39303EF80008008316031311141118E6
:10076000AF2B103083120313930083160313141955
:10077000B72B8316031383160313111BD02B83127D
:1007800003137008831203139300831603131419C1
:10079000C72B8316031383160313111BD02BD02BE7
:1007A0008316031311151119D32B08008316031395
:1007B00011141118D92B11308312031393008316CF
:1007C00003131419E12B8316031383160313111B50
:1007D000FA2B8316031391159119EC2B8312031333
:1007E000130883120313F0008316031391161116D6
:1007F000111AF82B8316031311151119FD2B08007C
:02400E00723FFF
:00000001FF
