:020000040000FA
:020000000528D1
:040002000034003492
:08000800742883168B010E30F1
:100010009F0011308500F3308600183087000230D1
:10002000880000308900FF3092008312FF30950075
:10003000FF309B003C3097003C309D000530920023
:1000400091011211103090008F018E0182228501E2
:100050008601870188018901CB01CA01C201C7015C
:1000600087130421861C3228060E0F39A022861819
:100070003728A02262226222871212153F2871229D
:1000800071227122712271229F20253047020318AC
:100090003F2887177122712208108810C701B60106
:1000A00087134C30840054287122712271227122EE
:1000B00071229F20B420C32054288B01622287160E
:1000C0006222622262229F2025304702031C63289D
:1000D000692862226B2895019B012121861C6E28CC
:1000E000060E0F39A022D228B100030EB2000B1069
:1000F0008B109820320E8300B10E310E09001030A3
:10010000C3000910891405118512C1309F007C229B
:100110007C227C227C227C221F151F198D281E0820
:10012000C83C031C0800871762228713712208004D
:10013000C50A0630C502031DC60AC5010800081419
:100140007C220810881CA22810148818A5281010DA
:100150000F08B3000E08B4008F018E013A30B500CD
:1001600055223608C700080008304702031C080063
:10017000871AC9289B017122712271227122712272
:10018000FF309B0008000830470203180800871A58
:10019000BA28950171227122712271227122FF30D9
:1001A000950008005430B2224930B2224D30B222BC
:1001B0004530B2223A30B2222030B222C030A322DF
:1001C0003E2162226222A0224C3084005330B222AF
:1001D0005030B2224F30B2225430B2223A30B222E2
:1001E0002030B2220008B2226330B2226D30B22237
:1001F0006222A022840ACA0BE6284530B2224E3081
:10020000B2224430B222812A4830B2224930B2228E
:100210005430B2222030B2222A30B2222030B22210
:100220005430B2224F30B2222030B2225330B222A8
:100230005430B2224130B2225230B2225430B22273
:1002400008004830B2224930B2225430B222203065
:10025000B2222A30B2222030B2224630B2224F30AF
:10026000B2225230B2222030B2224430B222413087
:10027000B2225430B2224130B22208004E30B222B3
:100280005530B2224D30B2222030B2225330B22249
:100290005030B2224F30B2225430B2225330B22208
:1002A0003A30B2222030B2224B08303EB22208004F
:1002B000013083120313F30019238312031375080B
:1002C00068237708BB007808BA0000308312031354
:1002D000F300192383120313750868237708BD0000
:1002E0007808BC000800013083120313F3001923BF
:1002F00083120313750868237708BF007808BE00CF
:10030000003083120313F3001923831203137508BB
:1003100068237708C1007808C00008000130A322D4
:100320003230B2223030B222063083120313F3008F
:10033000192383120313750868237708B2227808FB
:10034000B2222F30B222053083120313F300192397
:1003500083120313750868237708B2227808B22243
:100360002F30B222043083120313F30019238312B7
:100370000313750868237708B2227808B222C030C8
:10038000A322023083120313F300192383120313F1
:10039000750868237708B2227808B2223A30B22270
:1003A000013083120313F30019238312031375081A
:1003B00068237708B2227808B2223A30B22200309D
:1003C00083120313F30019238312031375086823A0
:1003D0007708B2227808B222080083120313F401CE
:1003E00083120313F301DE2283120313F30ADE22C6
:1003F00083120313F30ADE2283120313F30ADE22AD
:1004000083120313F30ADE2283120313F30ADE229C
:1004100083120313F30ADE22831203130030F30066
:10042000831203138030F400DE228312031306309C
:10043000F300831203131630F400DE228312031339
:100440000530F300831203130430F400DE2283121C
:1004500003130430F300831203130630F400DE228A
:10046000831203130330F300831203130230F400EA
:10047000DE22831203130230F300831203130030D1
:10048000F400DE22831203130130F30083120313FE
:100490000030F400DE22831203130030F3008312D5
:1004A00003130030F400DE220800B6013508B40260
:1004B000031C5B2A5F2A0130B302031C612AB60ABF
:1004C000562A08001530B7007430B8000630B9005D
:1004D000B70B6B2AB80B6D2AB90B682A6F2A702AE2
:1004E00008008630B7001430B800B70B782AB80B74
:1004F000752A7A2A000008000F30B700B70B7E2A51
:040500000800812A44
:0C05040083128815C322C322C3223330A7
:10051000A322C322C3223230A322C322C322283003
:10052000A322C322C3220C30A322C322C32206303B
:10053000A322C322C3220130A322C322C322080064
:100540000130A32208000811F300F0398800881553
:10055000C3228811730EF03988008815C3228811D0
:10056000C32208000815F4007408F039043E88001E
:100570008815C3228811740EF039043E880088154E
:10058000C322881108001430F200FF30F100F10B93
:10059000C72AF20BC52A08008316031394011830EA
:1005A00083160313930008308312031394009416E8
:1005B0008316031311151119DB2A08008316031380
:1005C00011141118E12AD0308312031393008316FB
:1005D00003131419E92A8316031383160313111B3B
:1005E000122B8312031373088312031393008316D1
:1005F00003131419F92A8316031383160313111B0B
:10060000122B8312031374088312031393008316AF
:1006100003131419092B8316031383160313111BD9
:10062000122B132B00008316031311151119162B0F
:10063000080083160313111411181C2BD0308312D9
:1006400003139300831603131419242B8316031327
:1006500083160313111B612B831203137308831278
:1006600003139300831603131419342B83160313F7
:1006700083160313111B612B831603139114911816
:100680003F2BD130831203139300831603131419E5
:10069000472B8316031383160313111B612B831639
:1006A000031391159119522B83120313130883120C
:1006B0000313F5008316031391161116111A5E2BFE
:1006C000622B00008316031311151119652B080006
:1006D00083120313F600760E0F39303EF7008312B3
:1006E000031376080F39303EF80008008316031311
:1006F00011141118792B10308312031393008316F1
:1007000003131419812B8316031383160313111B70
:100710009A2B83120313700883120313930083161A
:1007200003131419912B8316031383160313111B40
:100730009A2B9A2B83160313111511199D2B080060
:100740008316031311141118A32B113083120313F2
:100750009300831603131419AB2B8316031383160C
:100760000313111BC42B8316031391159119B62B78
:1007700083120313130883120313F0008316031369
:1007800091161116111AC22B831603131115111984
:04079000C72B08006B
:02400E00723FFF
:00000001FF
