:020000040000FA
:020000000528D1
:040002000034003492
:0800080023288316061285016E
:10001000F33086008701880183128B150B168B172E
:100020008501860187018801362058200714861C27
:100030001728060E0F393120752086181D287C20C0
:10004000212821282228F300030EF40007100B10AA
:100050008B10740E8300F30E730E090001308806B6
:10006000080082072A34303423344434831288153C
:10007000912091209120081130308C2091209120E6
:10008000812091208120812020308C20912091207E
:10009000812028307520912091200F3075209120EB
:1000A000912006307520912091207C2008150800B1
:1000B0004830752049307520543075202030752027
:1000C0002A30752020307520543075204F3075202F
:1000D0002030752053307520543075204130752004
:1000E00052307520543075200800F0008C2081209B
:1000F000700E8C208120080008110130752091209D
:100100000800FF30F100F10B83288811FF30F10067
:10011000F10B882888150800F03988040F38880505
:1001200008001430F200FF30F100F10B9528F20BBB
:040130009328080008
:02400E00723FFF
:00000001FF
