:020000040000FA
:020000000528D1
:040002000034003492
:080008006F2883168B010630FE
:100010009F0010308500F3308600B93087008801DA
:1000200007308900FF3092008312FF309500FF30C7
:100030009B00FF3097009D00053092009101121146
:10004000103090008F018E018501860187018801A3
:10005000112383120313F40183120313F3012323E7
:1000600083120313F30A232383120313F30A2323B4
:1000700083120313F30A232383120313F30A2323A4
:1000800083120313F30A232383120313F30A232394
:10009000C722D601D501CE01D201D3012E21861C63
:1000A0004F28060E0F39E52286185428E5228716B8
:1000B0001215172282215C28AD20B620083052028A
:1000C00003185C288B150B168B176628CB20A020F5
:1000D000B620083052020318E0287A206628BD00B6
:1000E000030EBE000B108B109D203E0E8300BD0E34
:1000F0003D0E09001030CF00CF0305104F18051436
:100100008510CF18851405114F1905158511CF19C4
:100110008515A022A022A022A022A022A022A022F7
:10012000A022071C992808148C225108AD00D60A79
:100130000810CF0ACF0B7C2808001330D107080025
:10014000083053020318A528AD288516B62285125B
:10015000A022A022A022A02208008516AB22AB225A
:100160008512A022A022A022A02208008615C1226A
:100170008611061EB9281014061ABC2810100F0884
:10018000BF000E08C0008F018E013A30C1007F22EF
:100190004208D20008000717C1220713871FCE2884
:1001A0001014871BD12810100F08BF000E08C000C4
:1001B0008F018E013A30C1007F224208D30008002F
:1001C0008B018712A020B620083052020318E028C5
:1001D000E9288C228C228C228C22EE2812119D215F
:1001E0004B21861CF128060E0F39E522F7285430E2
:1001F000F7224930F7224D30F7224530F7223A30C6
:10020000F7222030F722013083120313F3005E231C
:10021000831203137508AD237708F7227808F722B5
:100220003A30F722003083120313F3005E23831267
:1002300003137508AD237708F7227808F722C0303A
:10024000E82268218C228C22E52257308400453038
:10025000F7224E30F7224430F722C62A4830F722E0
:100260004930F7225430F7222030F7222A30F72283
:100270002030F7225430F7224F30F7222030F72277
:100280005330F7225430F7224130F7225230F72210
:100290005430F72208004830F7224930F722543012
:1002A000F7222030F7222A30F7222030F72246307A
:1002B000F7224F30F7225230F7222030F722443015
:1002C000F7224130F7225430F7224130F72208005C
:1002D0004E30F7225530F7224D30F7222030F722EA
:1002E0005330F7225030F7224F30F7225430F722A4
:1002F0005330F7223A30F7222030F7225608303EAA
:10030000F7220800013083120313F3005E238312E7
:1003100003137508AD237708C7007808C6000030BE
:1003200083120313F3005E23831203137508AD23B6
:100330007708C9007808C800080001308312031349
:10034000F3005E23831203137508AD237708CB00F7
:100350007808CA00003083120313F3005E2383126F
:1003600003137508AD237708CD007808CC0008008A
:100370000130E8223230F7223030F7220630831283
:100380000313F3005E23831203137508AD2377086C
:10039000F7227808F7222F30F72205308312031353
:1003A000F3005E23831203137508AD237708F72249
:1003B0007808F7222F30F722043083120313F3005A
:1003C0005E23831203137508AD237708F72278089C
:1003D000F722C030E822023083120313F3005E23B9
:1003E000831203137508AD237708F7227808F722E4
:1003F0003A30F722013083120313F3005E23831295
:1004000003137508AD237708F7227808F7223A30EE
:10041000F722003083120313F3005E2383120313C9
:100420007508AD237708F7227808F72208008312B1
:100430000313F40183120313F30123238312031321
:10044000F30A232383120313F30A232383120313D0
:10045000F30A232383120313F30A232383120313C0
:10046000F30A232383120313F30A232383120313B0
:100470000030F300831203138030F400232383122F
:1004800003130630F300831203131630F400232302
:10049000831203130530F300831203130430F400B6
:1004A0002323831203130430F30083120313063053
:1004B000F4002323831203130330F3008312031386
:1004C0000230F4002323831203130230F30083125B
:1004D00003130030F4002323831203130130F300CD
:1004E000831203130030F40023238312031300301C
:1004F000F300831203130030F40023230800C20129
:100500004108C002031C852A892A0130BF02031C4E
:100510008B2AC20A802A08001530C3007430C40038
:100520000630C500C30B952AC40B972AC50B922A27
:10053000992A9A2A0800FF30BC00BC0B9D2A0800AB
:100540008630C3001430C400C30BA72AC40BA42AEE
:10055000A92A000008001830C3000530C400C30BEE
:10056000B22AC40BAF2AB42A00000800EC30C30042
:100570000330C400C30BBD2AC40BBA2ABF2A000033
:0E05800008000F30C300C30BC32A0800C62AB0
:02058E008312D6
:1005900088150823082308233330E822082308237A
:1005A0003230E822082308232830E82208230823D1
:1005B0000C30E822082308230630E8220823082309
:1005C0000130E8220823082308000130E82208004F
:1005D0000811F300F0398800881508238811730E7C
:1005E000F0398800881508238811082308000815A9
:1005F000F4007408F039043E880088150823881137
:10060000740EF039043E880088150823881108000C
:100610001430F200FF30F100F10B0C2BF20B0A2B1F
:1006200008008316031394011830831603139300F4
:1006300008308312031394009416831603131115C4
:100640001119202B08008316031311141118262BDF
:10065000D0308312031393008316031314192E2B27
:100660008316031383160313111B572B83120313D3
:1006700073088312031393008316031314193E2B7C
:100680008316031383160313111B572B83120313B3
:1006900074088312031393008316031314194E2B4B
:1006A0008316031383160313111B572B582B0000BB
:1006B00083160313111511195B2B080083160313FE
:1006C00011141118612BD030831203139300831679
:1006D00003131419692B8316031383160313111BB9
:1006E000A62B83120313730883120313930083163C
:1006F00003131419792B8316031383160313111B89
:10070000A62B8316031391149118842BD1308312D6
:10071000031393008316031314198C2B83160313EE
:1007200083160313111BA62B83160313911591191E
:10073000972B83120313130883120313F5008316F8
:10074000031391161116111AA32BA72B0000831661
:10075000031311151119AA2B080083120313F600B5
:10076000760E0F39303EF7008312031376080F39E7
:10077000303EF80008008316031311141118BE2B25
:100780001030831203139300831603131419C62B1E
:100790008316031383160313111BDF2B831203131A
:1007A0007008831203139300831603131419D62BB6
:1007B0008316031383160313111BDF2BDF2B831602
:1007C000031311151119E22B0800831603131114DA
:1007D0001118E82B113083120313930083160313AF
:1007E0001419F02B8316031383160313111B092C02
:1007F0008316031391159119FB2B8312031313080E
:1008000083120313F0008316031391161116111AA5
:0E081000072C83160313111511190C2C080068
:02400E00723FFF
:00000001FF
