:020000040000FA
:020000000528D1
:040002000034003492
:080008005B2883168B01183000
:100010008500F33086007930870088010730890039
:1000200080309200831295019B010C3097009D0057
:100030000230920091011215103090008F018E0154
:1000400085018601870188017F2283120313F40151
:1000500083120313F301912283120313F30A9122F3
:1000600083120313F30A912283120313F30A9122DA
:1000700083120313F30A912283120313F30A9122CA
:1000800083120313F30A9122B52135220030D600E2
:10009000D500CF20861C4A28060E0F395322861819
:1000A0004F2853222021552854288120852066205E
:1000B0006B2070205528C000030EC1000B108B1060
:1000C000410E8300C00E400E99280900950F662846
:1000D000950B682808009B0F6B289B0B6D28080068
:1000E0000730D1002A220510511805148510D118A7
:1000F0008514051151190515D10B722808007F28A8
:10010000080086152F2286110800061E8528101467
:10011000061A882810100F08C2000E08C3008F01AD
:100120008E013A30C4001D224508D3001B2308006D
:1001300008003B21861C9928060E0F395322A0285F
:1001400009212A222A222A222A222A222A222A2271
:1001500053225730840053306522503065224F308F
:100160006522543065223A306522203065226330A2
:1001700065226D3065222A222A222A222A222A2258
:100180002A222A222A222A225322840AD50BAB2889
:10019000453065224E30652244306522342A48308D
:1001A00065224930652254306522203065222A308C
:1001B000652220306522543065224F306522203080
:1001C0006522533065225430652241306522523019
:1001D0006522543065220800483065224930652286
:1001E00054306522203065222A3065222030652275
:1001F000463065224F30652252306522203065221C
:1002000044306522413065225430652241306522F8
:1002100008004E306522553065224D306522203071
:10022000652253306522503065224F3065225430AC
:100230006522533065223A3065222030652208005D
:10024000013083120313F300CC22831203137508C9
:100250001B237708CA007808C900003083120313F3
:10026000F300CC228312031375081B237708CC00FC
:100270007808CB000800013083120313F300CC226E
:100280008312031375081B237708CE007808CD006E
:10029000003083120313F300CC228312031375087A
:1002A0001B237708D0007808CF00080001305622C1
:1002B0003230652230306522063083120313F3009A
:1002C000CC228312031375081B2377086522780854
:1002D00065222F306522053083120313F300CC22F0
:1002E0008312031375081B2377086522780865229B
:1002F0002F306522043083120313F300CC228312C3
:10030000031375081B237708652278086522C0301F
:100310005622023083120313F300CC2283120313FC
:1003200075081B2377086522780865223A30652214
:10033000013083120313F300CC22831203137508D8
:100340001B2377086522780865223A306522003041
:1003500083120313F300CC228312031375081B23AB
:100360007708652278086522080083120313F401D8
:1003700083120313F301912283120313F30A9122D0
:1003800083120313F30A912283120313F30A9122B7
:1003900083120313F30A912283120313F30A9122A7
:1003A00083120313F30A9122831203130030F30024
:1003B000831203138030F40091228312031306305A
:1003C000F300831203131630F400912283120313F7
:1003D0000530F300831203130430F40091228312DA
:1003E00003130430F300831203130630F400912248
:1003F000831203130330F300831203130230F4005B
:100400009122831203130230F3008312031300308E
:10041000F4009122831203130130F30083120313BB
:100420000030F4009122831203130030F300831292
:1004300003130030F40091220800C5014408C302F0
:10044000031C232A272A0130C202031C292AC50AB9
:100450001E2A0800FF30BF00BF0B2C2A08002130E5
:0A046000C600C60B312A0800342A3A
:06046A00831288157622C2
:100470007622762233305622762276223230562267
:100480007622762228305622762276220C30562288
:1004900076227622063056227622762201305622A5
:1004A0007622762208000130562208000811F30057
:1004B000F0398800881576228811730EF03988008B
:1004C000881576228811762208000815F400740831
:1004D000F039043E8800881576228811740EF039B0
:1004E000043E880088157622881108001430F20036
:1004F000FF30F100F10B7A2AF20B782A08008316FC
:1005000003139401183083160313930008308312E9
:1005100003139400941683160313111511198E2AD0
:1005200008008316031311141118942AD030831273
:10053000031393008316031314199C2A83160313C1
:1005400083160313111BC52A831203137308831226
:1005500003139300831603131419AC2A8316031391
:1005600083160313111BC52A831203137408831205
:1005700003139300831603131419BC2A8316031361
:1005800083160313111BC52AC62A00008316031302
:1005900011151119C92A0800831603131114111813
:1005A000CF2AD03083120313930083160313141938
:1005B000D72A8316031383160313111B142B8312DC
:1005C0000313730883120313930083160313141980
:1005D000E72A8316031383160313111B142B8316A8
:1005E000031391149118F22AD1308312031393004C
:1005F000831603131419FA2A83160313831603139D
:10060000111B142B8316031391159119052B8312BB
:100610000313130883120313F500831603139116B3
:100620001116111A112B152B000083160313111527
:100630001119182B080083120313F600760E0F39D8
:10064000303EF7008312031376080F39303EF8006E
:10065000080083160313111411182C2B1030831269
:1006600003139300831603131419342B83160313F7
:1006700083160313111B4D2B83120313700883126F
:1006800003139300831603131419442B83160313C7
:1006900083160313111B4D2B4D2B831603131115BA
:1006A0001119502B08008316031311141118562B1F
:1006B00011308312031393008316031314195E2B56
:1006C0008316031383160313111B772B831603134F
:1006D00091159119692B83120313130883120313C5
:1006E000F0008316031391161116111A752B831639
:0A06F0000313111511197A2B0800ED
:02400E00723FFF
:00000001FF
