:020000040000FA
:020000000528D1
:040002000034003492
:08000800692883168B01063004
:100010009F0010308500F3308600993087008801FA
:1000200007308900FF3092008312FF309500FF30C7
:100030009B00FF309700FF309D000530920091013A
:100040001211103090008F018E010F23C522CB01B9
:10005000CA01C201C701C8013121861C2D28060E24
:100060000F39E32286183228E322871212151A224A
:1000700085213A28CB20A020CB2008304702031846
:100080003A288B150B168B174528B620A020CB20BD
:10009000E020EE200830470203185028742045283D
:1000A0008B018712A020CB2008304702031850286C
:1000B00059288F228F228F228F225E2812119701BA
:1000C0009D01A0214E21861C6328060E0F39E322D4
:1000D000FA28B100030EB2000B108B109920320EDB
:1000E0008300B10E310E09001030C300C3030510A8
:1000F000431805148510C3188514051143190515F7
:100100008511C31985159E229E229E229E229E2223
:100110009E229E229E229E229E2207189528081427
:100120008F2246089700CB0A0810C30AC30B762813
:100130000800C50A0630C5020318C60AC501080032
:10014000083047020318A528AD288516B422851269
:100150009E229E229E229E2208008516A922A92266
:1001600085129E229E229E229E2208008615BF2274
:100170008611061EB9281014061ABC2810100F0884
:10018000B3000E08B4008F018E013A30B500822210
:100190003608C80008000717BF228713871FCE281C
:1001A0001014871BD12810100F08B3000E08B400DC
:1001B0008F018E013A30B50082223608C700080050
:1001C00002304702031C08000814950197019E2283
:1001D0009E229E22FF309500081008004708053C2B
:1001E000031C08009B019D019E229E229E22FF303F
:1001F0009B0008005430F5224930F5224D30F5229D
:100200004530F5223A30F5222030F52201308312B4
:100210000313F3005C23831203137508AB237708E1
:10022000F5227808F5223A30F522003083120313C4
:10023000F3005C23831203137508AB237708F522C0
:100240007808F522C030E6226B218F228F22E3222C
:100250004C3084004530F5224E30F5224430F522F2
:10026000C42A4830F5224930F5225430F522203096
:10027000F5222A30F5222030F5225430F5224F3075
:10028000F5222030F5225330F5225430F52241304A
:10029000F5225230F5225430F52208004830F5227C
:1002A0004930F5225430F5222030F5222A30F5224B
:1002B0002030F5224630F5224F30F5225230F5221B
:1002C0002030F5224430F5224130F5225430F52219
:1002D0004130F52208004E30F5225530F5224D30E0
:1002E000F5222030F5225330F5225030F5224F30E0
:1002F000F5225430F5225330F5223A30F5222030E1
:10030000F5224B08303EF52208000130831203131A
:10031000F3005C23831203137508AB237708BB003B
:100320007808BA00003083120313F3005C238312B1
:1003300003137508AB237708BD007808BC000800DC
:10034000013083120313F3005C2383120313750837
:10035000AB237708BF007808BE0000308312031378
:10036000F3005C23831203137508AB237708C100E5
:100370007808C00008000130E6223230F522303023
:10038000F522063083120313F3005C238312031358
:100390007508AB237708F5227808F5222F30F5226F
:1003A000053083120313F3005C23831203137508D3
:1003B000AB237708F5227808F5222F30F522043098
:1003C00083120313F3005C23831203137508AB231A
:1003D0007708F5227808F522C030E6220230831231
:1003E0000313F3005C23831203137508AB23770810
:1003F000F5227808F5223A30F522013083120313F2
:10040000F3005C23831203137508AB237708F522EE
:100410007808F5223A30F522003083120313F300F6
:100420005C23831203137508AB237708F522780841
:10043000F522080083120313F40183120313F3015E
:10044000212383120313F30A212383120313F30AD4
:10045000212383120313F30A212383120313F30AC4
:10046000212383120313F30A212383120313F30AB4
:100470002123831203130030F3008312031380300F
:10048000F4002123831203130630F30083120313B5
:100490001630F4002123831203130530F300831276
:1004A00003130430F4002123831203130430F300F8
:1004B000831203130630F400212383120313033045
:1004C000F300831203130230F40021238312031379
:1004D0000230F300831203130030F400212383124F
:1004E00003130130F300831203130030F4002123BF
:1004F000831203130030F300831203130030F4005F
:1005000021230800B6013508B402031C882A8C2A6E
:100510000130B302031C8E2AB60A832A0800153064
:10052000B7007430B8000630B900B70B982AB80B82
:100530009A2AB90B952A9C2A9D2A08008630B70072
:100540001430B800B70BA52AB80BA22AA72A0000BE
:1005500008001830B7000530B800B70BB02AB80B48
:10056000AD2AB22A00000800EC30B7000330B80012
:10057000B70BBB2AB80BB82ABD2A000008000F3001
:0A058000B700B70BC12A0800C42A17
:06058A0083128815062310
:10059000062306233330E622062306233230E622E2
:1005A000062306232830E622062306230C30E62203
:1005B000062306230630E622062306230130E62220
:1005C0000623062308000130E62208000811F30084
:1005D000F0398800881506238811730EF0398800D9
:1005E000881506238811062308000815F4007408EE
:1005F000F039043E8800881506238811740EF039FE
:10060000043E880088150623881108001430F20083
:10061000FF30F100F10B0A2BF20B082B08008316B8
:1006200003139401183083160313930008308312C8
:1006300003139400941683160313111511191E2B1E
:1006400008008316031311141118242BD0308312C1
:10065000031393008316031314192C2B831603130F
:1006600083160313111B552B831203137308831274
:10067000031393008316031314193C2B83160313DF
:1006800083160313111B552B831203137408831253
:10069000031393008316031314194C2B83160313AF
:1006A00083160313111B552B562B000083160313BF
:1006B00011151119592B0800831603131114111861
:1006C0005F2BD03083120313930083160313141986
:1006D000672B8316031383160313111BA42B83129A
:1006E000031373088312031393008316031314195F
:1006F000772B8316031383160313111BA42B831666
:10070000031391149118822BD13083120313930099
:100710008316031314198A2B8316031383160313EA
:10072000111BA42B8316031391159119952B83127A
:100730000313130883120313F50083160313911692
:100740001116111AA12BA52B0000831603131115E6
:100750001119A82B080083120313F600760E0F3927
:10076000303EF7008312031376080F39303EF8004D
:1007700008008316031311141118BC2B10308312B8
:1007800003139300831603131419C42B8316031346
:1007900083160313111BDD2B8312031370088312BE
:1007A00003139300831603131419D42B8316031316
:1007B00083160313111BDD2BDD2B83160313111579
:1007C0001119E02B08008316031311141118E62BDE
:1007D0001130831203139300831603131419EE2BA5
:1007E0008316031383160313111B072C831603139D
:1007F00091159119F92B8312031313088312031314
:10080000F0008316031391161116111A052C831686
:0A0810000313111511190A2C08003A
:02400E00723FFF
:00000001FF
